{
  "transactions": [
    {
      "hash": "0x51d48dd4fdd0cda1e5af635c7b4c71066a6836720272660a810c44825b9f064f",
      "transactionType": "CALL",
      "contractName": null,
      "contractAddress": "0x779877a7b0d9e8603169ddbd7836e478b4624789",
      "function": "transferAndCall(address,uint256,bytes)",
      "arguments": [
        "0x9DdfaCa8183c41ad55329BdeeD9F6A8d53168B1B",
        "3000000000000000000",
        "0x088a90c42410203aec7e696b61f0f2e69b632cd102ead28054b6640bec57980c"
      ],
      "transaction": {
        "from": "0x65232aca8f1b6a46150f1d25124bccfc667d78f3",
        "to": "0x779877a7b0d9e8603169ddbd7836e478b4624789",
        "gas": "0x1c1ff",
        "value": "0x0",
        "input": "0x4000aea00000000000000000000000009ddfaca8183c41ad55329bdeed9f6a8d53168b1b00000000000000000000000000000000000000000000000029a2241af62c000000000000000000000000000000000000000000000000000000000000000000600000000000000000000000000000000000000000000000000000000000000020088a90c42410203aec7e696b61f0f2e69b632cd102ead28054b6640bec57980c",
        "nonce": "0x23",
        "chainId": "0xaa36a7"
      },
      "additionalContracts": [],
      "isFixedGasLimit": false
    }
  ],
  "receipts": [
    {
      "status": "0x1",
      "cumulativeGasUsed": "0xabdda0",
      "logs": [
        {
          "address": "0x779877a7b0d9e8603169ddbd7836e478b4624789",
          "topics": [
            "0xddf252ad1be2c89b69c2b068fc378daa952ba7f163c4a11628f55a4df523b3ef",
            "0x00000000000000000000000065232aca8f1b6a46150f1d25124bccfc667d78f3",
            "0x0000000000000000000000009ddfaca8183c41ad55329bdeed9f6a8d53168b1b"
          ],
          "data": "0x00000000000000000000000000000000000000000000000029a2241af62c0000",
          "blockHash": "0x00d65be4408185a75b2e1f8be581bf8afc195dc6a5197032129125fae16cb721",
          "blockNumber": "0x6958d9",
          "transactionHash": "0x51d48dd4fdd0cda1e5af635c7b4c71066a6836720272660a810c44825b9f064f",
          "transactionIndex": "0x3b",
          "logIndex": "0x66",
          "removed": false
        },
        {
          "address": "0x779877a7b0d9e8603169ddbd7836e478b4624789",
          "topics": [
            "0xe19260aff97b920c7df27010903aeb9c8d2be5d310a2c67824cf3f15396e4c16",
            "0x00000000000000000000000065232aca8f1b6a46150f1d25124bccfc667d78f3",
            "0x0000000000000000000000009ddfaca8183c41ad55329bdeed9f6a8d53168b1b"
          ],
          "data": "0x00000000000000000000000000000000000000000000000029a2241af62c000000000000000000000000000000000000000000000000000000000000000000400000000000000000000000000000000000000000000000000000000000000020088a90c42410203aec7e696b61f0f2e69b632cd102ead28054b6640bec57980c",
          "blockHash": "0x00d65be4408185a75b2e1f8be581bf8afc195dc6a5197032129125fae16cb721",
          "blockNumber": "0x6958d9",
          "transactionHash": "0x51d48dd4fdd0cda1e5af635c7b4c71066a6836720272660a810c44825b9f064f",
          "transactionIndex": "0x3b",
          "logIndex": "0x67",
          "removed": false
        },
        {
          "address": "0x9ddfaca8183c41ad55329bdeed9f6a8d53168b1b",
          "topics": [
            "0x1ced9348ff549fceab2ac57cd3a9de38edaaab274b725ee82c23e8fc8c4eec7a",
            "0x088a90c42410203aec7e696b61f0f2e69b632cd102ead28054b6640bec57980c"
          ],
          "data": "0x000000000000000000000000000000000000000000000000000000000000000000000000000000000000000000000000000000000000000029a2241af62c0000",
          "blockHash": "0x00d65be4408185a75b2e1f8be581bf8afc195dc6a5197032129125fae16cb721",
          "blockNumber": "0x6958d9",
          "transactionHash": "0x51d48dd4fdd0cda1e5af635c7b4c71066a6836720272660a810c44825b9f064f",
          "transactionIndex": "0x3b",
          "logIndex": "0x68",
          "removed": false
        }
      ],
      "logsBloom": "0x00000004000000000000000000000000000000000020000000000000020000000800000000000002000000000000000000000000020000000000000000000000000000000000000000000008000000000000000000000000000020000020000008000000000000000000000000000000000000000000000000000010000040000000000000000000000000010000800000000020040100000000000000000000000000000000000000000000010000000000000000000000000004000000000000000002000000000000000000000000000000000000000100000000000000000010000000000000800000000000000080000000000000000000000000000000",
      "type": "0x2",
      "transactionHash": "0x51d48dd4fdd0cda1e5af635c7b4c71066a6836720272660a810c44825b9f064f",
      "transactionIndex": "0x3b",
      "blockHash": "0x00d65be4408185a75b2e1f8be581bf8afc195dc6a5197032129125fae16cb721",
      "blockNumber": "0x6958d9",
      "gasUsed": "0x133b1",
      "effectiveGasPrice": "0x24896547a",
      "from": "0x65232aca8f1b6a46150f1d25124bccfc667d78f3",
      "to": "0x779877a7b0d9e8603169ddbd7836e478b4624789",
      "contractAddress": null
    }
  ],
  "libraries": [],
  "pending": [],
  "returns": {},
  "timestamp": 1729338317,
  "chain": 11155111,
  "commit": "1a74dd0"
}